:100000000C9446000C9465000C9465000C946500FB
:100010000C9465000C9465000C9465000C946500CC
:100020000C9465000C9465000C9465000C946500BC
:100030000C9465000C940C010C9465000C94650004
:100040000C9465000C9465000C9465000C9465009C
:100050000C9465000C9465000C9465000C9465008C
:100060000C9465000C9465000C9465000C9465007C
:100070000C9465000C9465000C9465000C9465006C
:100080000C9465000C9465000C94650011241FBE4F
:10009000CFEFD0E4DEBFCDBF11E0A0E0B1E0E4E0FF
:1000A000F8E000E00BBF02C007900D92A231B1074B
:1000B000D9F721E0A2E1B1E001C01D92A932B20757
:1000C000E1F70E94BC030C9400040C940000CF9351
:1000D000DF9300D00F92CDB7DEB789837B836A832D
:1000E00089818A3031F48A819B81BC018DE00E9434
:1000F000670080EC90E0FC018081882F90E08072A6
:100100009927892BB1F386EC90E02981FC012083AB
:1001100080E090E00F900F900F90DF91CF910895C5
:10012000CF93DF9300D000D0CDB7DEB769837A8359
:100130008B839C8389819A81AB81BC8180930E01E2
:1001400090930F01A0931001B093110180910E01C3
:1001500090910F01A0911001B091110180931301B2
:1001600090931401A0931501B093160100000F9015
:100170000F900F900F90DF91CF910895CF93DF9361
:10018000CDB7DEB781E890E02BE0FC01208388E862
:1001900090E02DE730E0FC01318320838FE690E092
:1001A00022E0FC01208384E890E0FC0111821082AF
:1001B00080910E0190910F01A0911001B091110159
:1001C0008093130190931401A0931501B09316012D
:1001D0008FE590E0FC0120818FE590E02068FC0134
:1001E00020830000DF91CF910895CF93DF93CDB7A7
:1001F000DEB781E890E0FC0110820000DF91CF9132
:100200000895CF93DF93CDB7DEB781E080931201DD
:100210000000DF91CF9108951F920F920FB60F92B9
:1002200011240BB60F922F933F934F935F936F93CD
:100230007F938F939F93AF93BF93EF93FF93CF934E
:10024000DF93CDB7DEB78091130190911401A09197
:100250001501B09116010197A109B109809313010D
:1002600090931401A0931501B0931601809113018E
:1002700090911401A0911501B0911601892B8A2B40
:100280008B2B91F40E94010180910E0190910F013E
:10029000A0911001B091110180931301909314016A
:1002A000A0931501B09316010000DF91CF91FF914B
:1002B000EF91BF91AF919F918F917F916F915F91DE
:1002C0004F913F912F910F900BBE0F900FBE0F904B
:1002D0001F901895CF93DF93CDB7DEB780912101A2
:1002E00090912201009719F00197C1F02EC08091E2
:1002F0001B01893049F481E090E0909322018093C2
:10030000210110921B0126C010922201109221019E
:1003100080911B018F5F80931B011CC080911B018A
:10032000813039F4109222011092210110921B01A8
:1003300011C081E090E0909322018093210180918F
:100340001B018F5F80931B0105C010922201109248
:10035000210100008091210190912201009719F064
:10036000019721F007C01092170107C081E0809328
:10037000170103C01092170100000000DF91CF9118
:100380000895CF93DF93CDB7DEB78091250190918B
:10039000260182309105E9F18330910508F063C0B0
:1003A000009719F00197D9F05EC010921C0180E20D
:1003B00090E0FC018081882F90E080959095887F67
:1003C0009927892B29F4109226011092250150C0FB
:1003D00081E090E0909326018093250149C080E25E
:1003E00090E0FC018081882F90E080959095887F37
:1003F0009927892B39F482E090E09093260180932D
:10040000250136C081E090E090932601809325017C
:100410002FC080E290E0FC018081882F90E08095E1
:100420009095887F9927892BA9F480911C018F5F73
:1004300080931C0180911C018A3029F410922601BE
:100440001092250115C082E090E0909326018093E0
:1004500025010EC010921C0181E090E090932601CE
:100460008093250105C010922601109225010000FD
:1004700080912501909126018230910579F0833099
:10048000910580F4009719F0019721F00BC01092AC
:1004900018010BC085E58093180107C085E580939E
:1004A000180103C01092180100000000DF91CF91E5
:1004B0000895CF93DF93CDB7DEB780912701909158
:1004C0002801892B41F585E290E0FC018081882F8D
:1004D00090E0827099270297D9F480E290E0FC01C5
:1004E0008081882F90E0809590959C01287F33270C
:1004F00080911D01882F90E08217930774F480E2A9
:1005000090E0FC0180818095887F80931D0105C06B
:1005100010921D0102C0000001C00000809127015F
:1005200090912801892B29F480911D018093190154
:1005300003C01092190100000000DF91CF910895CF
:10054000CF93DF93CDB7DEB7809123019091240143
:10055000009719F0019709F1D1C010921E0185E2B0
:1005600090E0FC018081882F90E0827099270297AB
:1005700079F480E290E0FC0180818095877080931F
:100580001E0181E090E09093240180932301BBC081
:100590001092240110922301B6C080911E0188237D
:1005A00081F480E290E0FC018081882F90E08095CA
:1005B000909587709927049721F484E080931A011D
:1005C0008EC080911E01813081F480E290E0FC01B8
:1005D0008081882F90E08095909587709927059766
:1005E00021F484E080931A017AC080911E01823048
:1005F00081F480E290E0FC018081882F90E080957A
:10060000909587709927069721F484E080931A01CA
:1006100066C080911E01833081F480E290E0FC018D
:100620008081882F90E08095909587709927079713
:1006300021F484E080931A0152C080911E0184301D
:1006400081F480E290E0FC018081882F90E0809529
:10065000909587709927892B21F484E080931A0163
:100660003EC080911E01853081F480E290E0FC0163
:100670008081882F90E080959095877099270197C9
:1006800021F484E080931A012AC080911E018630F3
:1006900081F480E290E0FC018081882F90E08095D9
:1006A000909587709927029721F484E080931A012E
:1006B00016C080911E01873081F480E290E0FC0139
:1006C0008081882F90E08095909587709927039777
:1006D00021F484E080931A0102C010921A0180E292
:1006E00090E0FC0180818095877080931E0181E0FD
:1006F00090E0909324018093230105C0109224017F
:100700001092230100008091230190912401009711
:1007100019F0019719F003C0000001C000000000AB
:10072000DF91CF910895CF93DF93CDB7DEB780915E
:100730001F0190912001892B89F4909117018091DC
:100740001801982B80911901392F382B20911A010B
:1007500085E290E0232BFC01208309C085E290E034
:10076000FC0110821092200110921F010000000075
:100770000000DF91CF910895CF93DF93CDB7DEB71F
:1007800081E290E0FC01108282E290E02FEFFC0118
:10079000208384E290E02FEFFC01208385E290E04B
:1007A000FC01108264E670E080E090E00E9490001E
:1007B0000E94BE0010922201109221011092260187
:1007C0001092250110922801109227011092240105
:1007D000109223011092200110921F010E946A01C1
:1007E0000E94C1010E9459020E94A0020E9493032C
:1007F0000000809112018823E1F310921201EECFE4
:04080000F894FFCF9A
:10080400000000020000000067000000000001007A
:020814000000E2
:00000001FF
